:020000040000FA
:0420000007EF10F0E6
:0A2008003D8298ED3EF0B3EF3EF08C
:10201800000102034104050642070809432A002378
:02202800440072
:0A7BF0001650D8B412001606120059
:107BFB00FFFF040A20FF010102E803815000F0019E
:107C0B000E176E00F01200010E15EC3EF06EEC3EFE
:107C1B00F01200020E15EC3EF06EEC3EF01200334B
:107C2B006E8494849233503BEC3EF012003B503CFC
:107C3B0010D8B412003B06D8A03C061200000E8AE6
:107C4B006E000E816EF00E936EF19EF180F290F24B
:107C5B00861200D59ED58CD59AD596D580D582D552
:107C6B0084D10ED66ED768F28A1200326E0F0E8C4C
:107C7B001684803250F00B8C1284900F0E8C16846D
:107C8B00803238F00B8C1284901200CD90CD92CDB7
:107C9B0084CD96CD8ACD88CD9ECD9C890ECE6EFEA1
:107CAB000ECF6E9E909D80F28C120032503402F3F8
:107CBB00CF36F0F4CF37F032503502F3503726334E
:107CCB00503402F350372636C032F037C033F0123F
:107CDB0000F00E9512849484828480000E83BE0182
:107CEB000E326E84908480835084903250D8A4F4EA
:107CFB00D784920F0E95161200000E896E000E8A15
:107D0B006E000E8B6E000E8C6E000E8D6E92689355
:107D1B006894680C0E956E000E966E070EB46E0F7F
:107D2B000EC16E12000600F2A408D0D10ED66ED78B
:107D3B0068F2941CEC3EF0F8EC3DF0F2A003D0039B
:107D4B00EC3EF0F2909EA007D0FE0ECE6E890ECFC9
:107D5B006E9E901CEC3EF03D921100FB0EF66E7B7E
:107D6B000EF76E000EF86E00EE27F010EE0BF0091A
:107D7B0000F5CFEEFFE550E150FAE100EE01F02601
:107D8B000EEE6AE806FDE13D903D92000EF86E00A6
:107D9B000117EF3FF00F0E95169694969296900062
:107DAB000E3C6E1E0E3B6E3B503C10D8A4FCD70213
:107DBB000E15EC3EF0000E3C6E010E3B6E3B503C44
:107DCB0010D8A4FCD7280E15EC3EF0000E3C6E012B
:107DDB000E3B6E3B503C10D8A4FCD70C0E15EC3E62
:107DEB00F0000E3C6E010E3B6E3B503C10D8A4FCD9
:107DFB00D7010E15EC3EF0000E3C6E010E3B6E3BB8
:107E0B00503C10D8A4FCD7060E15EC3EF0000E3CEF
:107E1B006E010E3B6E3B503C10D8A4FCD76EEC3E73
:107E2B00F0120082EC3EF02FEC3EF04BEC3EF024D7
:107E3B00EC3EF0F28ED58ECD80D0EC3EF009EC3ED0
:107E4B00F00FEC3EF0000E3A6E000E396E69EC3F0F
:107E5B00F0386E38500D6E0E6A0D280E10D8B4F631
:107E6B00D7E80E0B5C030E0C58D8B027D00BC032E2
:107E7B00F00CC033F0000E356E0A0E346E5BEC3E28
:107E8B00F00D5032240B6E0E5033200C6E16D03981
:107E9B00043A10D8A407EF10F0410E0D180E10D8AD
:107EAB00A402D0010E2F6E420E0D180E10D8A4078F
:107EBB00EF10F0000E2F6E07EF10F02F50020AD8C4
:107ECB00B4E6D707EF10F0346885D01750D8B490CC
:107EDB00D0000E176E2868276834681E0E166E01C8
:107EEB000E19D01650D8A484D0020E14D081BE0225
:107EFB00D0000E0BD081BC02D0010E07D081BA028C
:107F0B00D0020E03D081B802D0030E286E2828D8D9
:107F1B00A403D05ED0156E6CD0938600F000F08178
:107F2B00BE81AC05D081BA81A802D0000E20D093BF
:107F3B008400F000F081BE81AC05D081BA81A8022B
:107F4B00D0010E15D0938200F000F081BE81AC05FC
:107F5B00D081BA81A802D0020E0AD0938000F00023
:107F6B00F081BE81AC05D081BA81A802D0030E2767
:107F7B006E93969394939293902728D8B429D032EA
:107F8B000E166E030E156E2850040D190E326E2050
:107F9B000E336EF3503226F45033222750010DF37B
:107FAB00503226F450332232C0F6FF33C0F7FF08AD
:107FBB0000F5CF34F01DD081BE81AC1AD081BA81CF
:107FCB00A817D01650D8A414D003D028682768342B
:107FDB0068000EA0D71550000AD8B477D7010AD87D
:107FEB00B480D7030AD8B482D7010AD8B4E4D7ED4A
:057FFB00D73450120014
:020000040020DA
:08000000FFFFFFFFFFFFFFFF00
:020000040030CA
:0E000000240E3F1EFF8181FF0FC00FE00F4056
:00000001FF
